:100000000C947E020C94C5020C94C5020C94C5029B
:100010000C94C5020C94C5020C94C5020C94C50244
:100020000C94C5020C94C5020C94E91D0C94251D7A
:100030000C9498150C94C5020C94C5020C94C5023E
:100040000C94C5020C94C5020C94C5020C94C50214
:100050000C94C5020C9457150C94C5020C94C5025F
:100060000C94C5020C94C5020C94C5020C94C502F4
:100070000C94C5020C94C5020C94C5020C94C502E4
:100080000C94C5020C94C5020C94C5020C94C502D4
:100090000C94C5020C94C5020C94C5020C94C502C4
:1000A0000C94C5020C94C5020C94C5026406640647
:1000B0009E069E06F7061307A908A9081E07FC0757
:1000C0000D080D0849134C137C1389139113B113B8
:1000D0004B144B144B144B144B14B413B613BB13E7
:1000E000E0130214051408142B14201720173317DB
:1000F00033172917331733173317201720172E17E5
:10010000331733172E17391B601B071D601B071D84
:10011000AC1BCF1B071DC41CD41C0000000000003A
:1001200000000000000000000000000000000000CF
:1001300000000000000000000000000000007E0F32
:1001400000D4FFFFFFC7000000780000000000009F
:1001500000002A2B28000000000000000000000022
:10016000000000000029000000002C1E3420212285
:1001700024342627252E362D3738271E1F202122EE
:10018000232425263333362E37381F040506070867
:10019000090A0B0C0D0E0F10111213141516171857
:1001A000191A1B1C1D2F3130232D35040506070895
:1001B000090A0B0C0D0E0F10111213141516171837
:1001C000191A1B1C1D2F3130354C3A002900140020
:1001D0001A000800150017001C0018000C0012007F
:1001E00013002A003E003B002B000400160007000D
:1001F00009000A000B000D000E000F00280000008F
:100200003F003C00E1001D001B0006001900050036
:100210001100100036003700E500000040003D00EE
:10022000E000E20000002C002C002C002C002C0030
:100230000000E600E40000004100010001000100B0
:1002400001000100010001000100010001000100A6
:100250000100010001000100010001000100010096
:100260000100010001000100010001000100000087
:100270000100010001000100010001000100010076
:100280000100010001000100010000000100010067
:100290000100010000000100010001000100010057
:1002A0000000010001000000010001000100010048
:1002B0000100010001000100010001000100010036
:1002C0000100010001000100010001000100010026
:1002D0000100010001000100010001000100000017
:1002E0000100010001000100010001000100010006
:1002F00001000100010001000100000001000100F7
:1003000001000100000001000100010001000100E6
:1003100000000100010000000100010001000100D7
:1003200001000100010001000100010001000100C5
:1003300001000100010001000100010001000100B5
:1003400001000100010001000100010001000000A6
:100350000100010001000100010001000100010095
:100360000100010001000100010000000100010086
:100370000100010000000100010001000100010076
:100380000000010001000000010005010902A101B7
:1003900085020901A1000509190129081500250197
:1003A0009508750181020501093009311581257F04
:1003B00095027508810609381581257F9501750814
:1003C0008106050C0A38021581257F950175088183
:1003D00006C0C005010980A101850319012AB700E3
:1003E000150126B700950175108100C0050C0901A3
:1003F000A101850419012AA002150126A002950178
:1004000075108100C00660FF0961A1010962150035
:1004100026FF009520750881020963150026FF005C
:10042000952075089102C005010906A1010507196B
:10043000E029E715002501950875018102950175F0
:100440000881010507190029FF150026FF00950600
:1004500075088100050819012905950575019102A6
:10046000950175039101C009025B00030100A0FA28
:10047000090400000103010100092111010001220A
:1004800040000705810308000A0904010002030077
:10049000000009211101000122220007058203202A
:1004A0000001070503032000010904020001030005
:1004B0000000092111010001227B000705840320AF
:1004C000000A12011001000000084B6940540100AD
:1004D000010200011203740069006C0074006500E1
:1004E00064003400300000000E03730077006900E0
:1004F00073006800790000000403090411241FBE82
:10050000CFEFDAE0DEBFCDBF04B603FE27C0809197
:10051000340290913502A0913602B09137028730B3
:10052000904BA740B04BD1F4109234021092350298
:10053000109236021092370214BE84B7877F84BFB0
:100540000FB6F894A8958091600088618093600050
:10055000109260000FBEE0E0F8E3099511E0A0E022
:10056000B1E0EAE3F3E402C005900D92AE36B107C4
:10057000D9F722E0AEE6B1E001C01D92A433B20784
:10058000E1F70E945F100C949B210C9400003F92B5
:100590004F925F926F927F928F929F92AF92BF9293
:1005A000CF92DF92EF92FF920F931F93CF93DF933F
:1005B000CDB7DEB729970FB6F894DEBF0FBECDBF1B
:1005C000FC018081918123813481232B31F09F3F75
:1005D00031F491E08F3F19F403C091E001C090E045
:1005E00090FDF4C57F0185E0DE01119601900D922A
:1005F0008A95E1F7F701228189819A81222349F0C6
:100600000E94C116182F682F89819A810E94631752
:1006100003C00E943717182F69817A81812F0E94A9
:100620000B0B8C01F7018281882309F4F2C0980139
:1006300022513F452031310508F019C18FEF93E079
:100640000E9424218111EFC0025137EE832E99249C
:100650009394002379F08114F4E09F0609F4E3C039
:10066000C4010E942421811101C001501FEF811A91
:10067000910AEFCF1E821F82188619864424439464
:100680002AE0322E84010F5F1F4FC4010E942421F3
:100690008E831F82882309F4C6C09FEF980F933082
:1006A00060F48F834E8222E0820E911CC8010E946A
:1006B00024218887811102C0B6C048018E010A5FDB
:1006C0001F4FF80120812223E9F2213009F04CC0AC
:1006D0008181813049F46801F2E0CF0ED11CF8012C
:1006E00082810E9454200AC0823051F46801F2E0F5
:1006F000CF0ED11CF80182810E94711F860186C035
:10070000833049F46801F2E0CF0ED11CF8018281F8
:100710000E94321FF3CF843019F00F5F1F4F76C055
:10072000F80122810E5F1F4F80E090E030E02053FF
:1007300031092A30310568F4389EA001399E500DE8
:100740001124C901840F951F0F5F1F4FF8012081ED
:10075000EDCF009709F45AC0EFE9FFE03197F1F7C8
:1007600000C000000197F5CFE22FF0E0E65BFE4FFE
:100770005490822F86958695869590E0FC01E65CE4
:10078000FE4F64902770712C022E02C075946794FE
:100790000A94E2F7F1E06F227724FC01E65DFE4F58
:1007A000A490B12C022E02C0B594A7940A94E2F74B
:1007B00031E0A322BB24FC01E65EFE4FC490D12CA5
:1007C00002C0D594C7942A95E2F781E0C822DD24BF
:1007D0006114710419F081EE0E94711FA114B1041B
:1007E00019F086EE0E94711F852D0E945420AB28BF
:1007F00019F086EE0E94321F672819F081EE0E94E0
:10080000321FCD2819F08CE20E9454200F5F1F4F39
:1008100058CF00313FE5130709F0CFC481E00E94B3
:1008200098170E94351A80910E02877009F4CEC481
:10083000F7018281882309F4C9C482E029960FB6A2
:10084000F894DEBF0FBECDBFDF91CF911F910F9106
:10085000FF90EF90DF90CF90BF90AF909F908F90E0
:100860007F906F905F904F903F900C94BD17003138
:10087000FFE51F0711F481E005C001312FE51207E4
:1008800021F482E00E94DA17CCCF033FFCE51F077A
:1008900099F406E221EE40EE63EF7CE509C0073DE6
:1008A000ECE51E0711F506E221EE41EE67ED7CE571
:1008B000C7010E942E0AB7CF043F2CE5120708F0AB
:1008C0003FC1083D3CE5130731F407E225EE45EE54
:1008D00068ED7CE5EDCF093D9CE5190701F708E2DD
:1008E00021E045EE69ED7CE5E3CF882309F45DC1A5
:1008F0001092700102309CE5190708F440C10631DE
:10090000ECE51E0730F0C8018A5F9C45099708F0A6
:1009100036C10E94DB1590937C0180937B010031EE
:10092000FCE51F0709F4C3C008F041C008303CE5EE
:10093000130709F49AC0F0F404309CE5190709F490
:1009400087C068F40230FCE51F0709F477C0033064
:100950001C4509F0E5C080917B01826076C00630BD
:100960003CE5130709F46EC008F07BC080917B0161
:1009700088606BC00C309CE5190709F485C068F4E9
:100980000A30FCE51F0709F474C008F079C00E9422
:100990002A1A80917B01806858C00E303CE513070D
:1009A00009F476C008F07FC080917B018BC00B3FBB
:1009B0009CE5190709F44FC018F50331FCE51F0742
:1009C00009F47DC078F401313CE5130709F473C0E4
:1009D00002311C4509F0A4C00E942A1A80917B01B3
:1009E0008F7733C005319CE5190709F472C008F40C
:1009F00086C00A3F1C4509F093C080917C013EC02F
:100A00000F3F2CE5120709F45FC058F40D3F8CE549
:100A1000180709F444C008F43FC080917C0182604B
:100A20002DC00130EDE51E0709F475C008F45DC066
:100A300002301D4509F074C060E06EC080917B01FA
:100A4000816003C080917B01806180937B0168C0DD
:100A500080917B0111C080917C01826080937C0138
:100A60005FC080917B018062F0CF80917B018064C8
:100A7000ECCF80917B0188608460E7CF8160EECF0E
:100A800080917B018E7FE1CF80917B018D7FDDCFD7
:100A900080917B01877FD9CF80917C0118C08091A4
:100AA0007C018D7FDBCF80917B018F7ECECF8091CB
:100AB0007B018F7DCACF80917B018F7BC6CF8091D8
:100AC0007B01877F8B7FC1CF80917C018D7F8E7F63
:100AD000C5CF80917B0182FB222720F991E09227EC
:100AE00090FB82F990FB83F9B0CF80917C01982F25
:100AF000909591708E7F892B90FB81F9AFCF0E94EA
:100B00002A1A80917B0187FB222720F991E0922706
:100B100090FB87F99ACF61E08EE090E00E9432214D
:100B200060917B0110917C0184E090E00E94322171
:100B3000612F82E290E00E9432210E942A1A73CE35
:100B4000053FFCE51F0731F406E221EE42EE65EFBA
:100B50007CE5AECE053F2CE5120730F407E225EE2A
:100B600044EE64EF7CE5A4CE063F3CE5130709F0B4
:100B7000BCCE07E225EE46EE66EF7CE599CE063167
:100B80008CE5180751F5809111028A7A91E009F4F9
:100B900090E090937101882311F065E301C069E250
:100BA0008AEA91E00E94C11515C006311C4509F082
:100BB00045C080917101882309F406C385E3EAEA00
:100BC000F1E09281891301C01282319631E0E03B5D
:100BD000F307B9F70E945D1626CE0A358DE5180792
:100BE00041F150F40115ECE51E07A9F00E3D1C453E
:100BF00029F50E94EC1517CE0B352DE51207D9F01B
:100C00000C351D45D9F480917C0182FB882780F941
:100C100091E0892711C00E942A1A8FEF94E3ECE03B
:100C200081509040E040E1F700C000000E94331581
:100C3000FACD81E001C080E00E94A716F701828111
:100C400000811181882349F0C8010E94C116D82E65
:100C5000682FC8010E94631704C0C8010E9437179B
:100C6000D82EB8018D2D0E94C80E8C01982EF70148
:100C7000D280A580A2949FE0A92280910E02877065
:100C800099F0DD2089F0812F807F803421F080E28F
:100C9000800F883048F082E00E94BD1780910E02DC
:100CA0008770CC24C3948111C12CB12EB2948FE0F3
:100CB000B8228B2D90E08C30910508F04AC2FC01DF
:100CC000EA5AFF4F0C947A21812F807F1F7088236E
:100CD00011F01295107FDD20B9F0112309F424C220
:100CE00080E2800F883010F0911006C080911102D0
:100CF000182B1093110205C080911002182B10932D
:100D000010020E945D1610C2802F0E94321F112314
:100D100009F41FC2005E1095083010F0911006C053
:100D20008091110218231093110205C080911002C6
:100D30001823109310020E945D160BC2812F807F32
:100D40001F70803211F01295107F992021F0F1E090
:100D50009F1611F130C0DD20B1F0AA2081F001E032
:100D6000A0120DC080917C0182FDF3C1809112021E
:100D7000182B181709F4EDC110931202EAC18091E3
:100D80001202812B10C0AA2021F021E0A21609F442
:100D9000E0C10E94571627C0DD2041F035E03A152A
:100DA00008F4D7C1812F0E94281FD3C184E08A157F
:100DB00008F4CFC118C0DD2049F0AA2099F3F7014B
:100DC000858180FFB1C18F708583ECCFAA2059F057
:100DD000093309F0BBC1FFEF17EE23E0F1501040DB
:100DE0002040E1F7B1C1812F0E941D1FB2C1812FA8
:100DF00086958695837019F0813059F0AAC1DD205F
:100E000019F0C801937002C080E090E00E940C0AC3
:100E1000A6C1DD2019F0C801937002C080E090E007
:100E20000E94F6099CC1802FDD2019F00E943B0C26
:100E300002C00E94420B0E94180B91C1812F837047
:100E400009F069C0D11089C1902F9295969597703D
:100E5000990F990F802F8F70882E912CA12CB12C77
:100E6000092E04C0880C991CAA1CBB1C0A94D2F73A
:100E700004FF12C04FE050E060E070E004C0440F97
:100E8000551F661F771F9A95D2F7DB01CA0180951F
:100E90009095A095B09503C080E090E0DC01169598
:100EA0001695412F4370423019F1C8F40091130296
:100EB000109114022091150230911602413059F020
:100EC00088299929AA29BB29BC01CD016023712356
:100ED000822393230AC0802A912AA22AB32ABC0122
:100EE000CD01682979298A299B290E94FB1735C1E0
:100EF00088299929AA29BB2900911302109114026B
:100F00002091150230911602BC01CD016027712796
:100F100082279327EACFDD2019F0812F817001C04D
:100F20008695882309F419C1902F9295969597700C
:100F3000990F990F802F8F70882E912CA12CB12C96
:100F4000092E04C0880C991CAA1CBB1C0A94D2F759
:100F500004FF12C04FE050E060E070E004C0440FB6
:100F6000551F661F771F9A95D2F7DB01CA0180953E
:100F70009095A095B09503C080E090E0DC011695B7
:100F80001695412F43704230D9F068F500912E023A
:100F900010912F022091300230913102413059F0EE
:100FA00088299929AA29BB29BC01CD016023712375
:100FB000822393231EC0802A912AA22AB32A13C017
:100FC00088299929AA29BB2900912E0210912F0264
:100FD0002091300230913102BC01CD016027712790
:100FE0008227932706C0BC01CD01682979298A2967
:100FF0009B290E948E17B1C01F70DD2039F0812F10
:101000000E94DA17802F0E94281FA7C0802F0E94FD
:101010001D1F812F0E949817A0C0802F32EF9316BA
:1010200009F440C0391538F090EF991661F0E1EFFE
:101030009E1699F174C0F3EF9F16D9F124EF921622
:1010400009F44EC06CC0DD2019F134E03A1508F403
:1010500080C01F7181E090E0A0E0B0E0AC01BD0174
:1010600004C0440F551F661F771F1A95D2F7809151
:101070002E0290912F02A0913002B09131028A018C
:101080009B01082719272A273B27C901B80125C03A
:1010900025E02A1508F45DC0DCCFDD2029F0812F82
:1010A0008F7130C0DD20D9F3812F8F710E94981786
:1010B00050C0DD2079F01F7181E090E0A0E0B0E049
:1010C000BC01CD0104C0660F771F881F991F1A95B8
:1010D000D2F703C060E070E0CB010E948E1739C0E8
:1010E000DD2099F01F71812F0E94DA1780917C0119
:1010F00082FD07C038E0139FC001112483608093F4
:101100000E02812F0E94DA1724C081E00E94BD17D1
:1011100081E08A15F0F482E00E94BD171AC0DD203C
:1011200039F0AA2009F4BBCF802F0E94711F11C093
:10113000AA2009F4B9CF893349F49FEFE7EEF3E031
:101140009150E040F040E1F700C00000802F0E9485
:10115000321F88EF8B0D843010F40E94220ACC20BD
:10116000A9F180910E0280FD31C0F70112828595B0
:10117000859585950E94DA17C7010E94C702809164
:101180000E0285958595859529960FB6F894DEBF54
:101190000FBECDBFDF91CF911F910F91FF90EF90C8
:1011A000DF90CF90BF90AF909F908F907F906F9087
:1011B0005F904F903F900C94981701319FE519076D
:1011C00009F063CB82E02BCB89E2F9CC29960FB6EC
:1011D000F894DEBF0FBECDBFDF91CF911F910F916D
:1011E000FF90EF90DF90CF90BF90AF909F908F9047
:1011F0007F906F905F904F903F90089590917B010A
:1012000092FF0DC0282F2871283019F4877F846041
:1012100006C0282F2471243011F48B7F886093FF3F
:101220000DC0282F2871283119F4877E846106C0EB
:10123000282F2471243111F48B7E886120917C0148
:1012400020FF0DC0382F3871383019F4877F816046
:1012500006C0382F3171313011F48E7F886021FF44
:101260000DC0282F2871283119F4877E816106C0AE
:10127000282F2171213111F48E7E886194FD877EA3
:1012800008950F931F9341E050E060E070E08A0101
:101290009B0104C0000F111F221F331F8A95D2F734
:1012A000C901B8010E94FB171F910F910C942A1AD3
:1012B0001F93CF93DF93CDB7DEB767970FB6F89440
:1012C000DEBF0FBECDBF342F4B8B252F5C8B6D8BBC
:1012D0007E8B8F8B4E895F8961111092100286E0A0
:1012E000FE013D96DF01982F1D929A95E9F73D8703
:1012F0002E876F87598B488BDE01179601900D92D0
:101300008A95E1F7CE0107960E947B1881113EC0B5
:1013100086E0FE013796DE01119601900D928A95C6
:10132000E1F7FF81E8856A857B856115710531F0FC
:10133000EF3F31F481E0FF3F19F403C081E001C0C9
:1013400080E080FD23C02091B90130E0C901019601
:10135000877099274091EA0150E08417950779F149
:10136000F983EA837D836C8396E0929FD001939FFB
:10137000B00D1124A654BE4FFE01319601900D927E
:101380009A95E1F78093B9010E94051816E08091C3
:10139000EA019091B9018917F9F0189FC001112451
:1013A00086549E4F0E947B188823B1F08091EA01F9
:1013B00090E00196877099278093EA01E8CF0E9418
:1013C0002A1A1092B9011092EA01E3EBF1E086E0EB
:1013D000DF011D928A95E9F767960FB6F894DEBF94
:1013E0000FBECDBFDF91CF911F910895209179015C
:1013F00030917A012817390771F090937A01809320
:101400007901E0918501F0918601309721F0008407
:10141000F185E02D099408952091770130917801AC
:101420002817390771F09093780180937701E09144
:101430008501F0918601309721F00680F781E02D3B
:1014400009940895E0918501F0918601309721F08B
:101450000190F081E02D099480E008950F931F938F
:10146000CF93DF93C42FD22FFC0182818823C9F050
:10147000409370010E948C159093760180937501C2
:1014800080E28C0F883008F057C0C77081E001C03F
:10149000880FCA95EAF7DF91CF911F910F910C94B5
:1014A000281F80917001481330C080917501909180
:1014B00076010E947D15883C910538F510E21D0FDC
:1014C000CD17B9F080E28C0F883040F4C77081E00E
:1014D00001C0880FCA95EAF70E941D1F183028F531
:1014E00081E09D2F977001C0880F9A95EAF70E94BE
:1014F000281F802F0E9454201830F0F4D77081E00C
:1015000001C0880FDA95EAF70AC080E28C0F8830B4
:1015100098F4C77081E001C0880FCA95EAF7DF919F
:10152000CF911F910F910C941D1F802FDF91CF91B0
:101530001F910F910C945420DF91CF911F910F9127
:101540000895CF93DF93C7EED1E060E0CE010E9413
:1015500032212196C11584E0D807B9F7DF91CF91E8
:101560000895CF92DF92EF92FF920F931F93CF9344
:10157000DF93C0E0D0E08E0100591F4F6E018CE177
:10158000C80ED11CFE01E653FE4FE590F4906F2D7E
:10159000CE0187960E9432216E2DCE0188960E9440
:1015A00032212296CC15DD0569F70C171D0731F79E
:1015B000E801003C1140F9F6DF91CF911F910F91A6
:1015C000FF90EF90DF90CF9008950F931F93CF93EC
:1015D000DF93C42FD0E0CC0FDD1F2CE1629FC00D44
:1015E000D11D112430E7839FC00DD11D1124CE01E0
:1015F00087960E942421082F10E0102F0027CE018B
:1016000088960E9424219801282BC901DF91CF914F
:101610001F910F910895462F843038F4743028F4C8
:101620006E3018F4672F0C94E50A80E090E008957E
:101630000E948C1520919001211104C020919101EC
:10164000222321F090938D0180938C0120919201AF
:10165000211104C020919301222321F090938A014B
:1016600080938901E0918501F0918601309749F0DE
:1016700082E080938E010480F581E02D8EE891E078
:1016800009940895803F39F49091910197FF35C0F6
:101690001092910159C0813F29F49091910119163E
:1016A000BCF32BC090919001823F29F497FF25C095
:1016B0001092900149C0833F19F41916CCF31DC054
:1016C00090919201893F29F41916BCF4109292016D
:1016D0003BC08A3F19F497FF10C0F8CF8B3F39F415
:1016E0009091930197FF09C0109293012DC08C3FF8
:1016F00021F4909193011916BCF39CE0980F95305A
:1017000080F421E030E0A90102C0440F551F9A95F2
:10171000E2F7CA01809590918F01892380938F0110
:1017200013C08D3F21F48091B2018E7F0BC08E3F9C
:1017300021F48091B2018D7F05C08F3F29F4809103
:10174000B2018B7F8093B20180919001811106C01C
:1017500080919101811102C010928B0180919201C0
:10176000811106C080919301811102C010928801FD
:1017700008958091B20180FF08C060910E0170E071
:10178000759567957595679521C081FF06C0609135
:101790000E0170E07595679519C082FF04C06091D5
:1017A0000E0170E010C090918801992399F060912A
:1017B0000D019617A0F780910E01899FC001112499
:1017C00070E00E9466216038710540F46115710572
:1017D00019F406C061E070E0862F08958FE7089540
:1017E00081E008958091B20180FF0BC060911001EB
:1017F00085E0689FB001112475956795759567958B
:101800002BC081FF09C06091100185E0689FB00185
:1018100011247595679520C082FF07C06091100163
:1018200085E0689FB001112417C090918B01992326
:10183000D1F060910F01961788F72091100185E093
:10184000289F90011124929FA001939F500D112475
:1018500070E0CA010E9466216038710540F461158C
:10186000710519F406C065E070E0862F08958FE7D2
:10187000089581E00895803F21F40E94F20B819544
:1018800004C0813F29F40E94F20B809391010895D6
:10189000823F21F40E94F20B819504C0833F29F41A
:1018A0000E94F20B809390010895893F19F40E94E1
:1018B000B90B05C08A3F31F40E94B90B8195809322
:1018C000920108958B3F21F40E94B90B819504C0C9
:1018D0008C3F29F40E94B90B8093930108959CE0FA
:1018E000980F953078F421E030E0A90102C0440F50
:1018F000551F9A95E2F7CA0190918F01892B809329
:101900008F0108958D3F21F48091B20181600BC059
:101910008E3F21F48091B201826005C08F3F29F48F
:101920008091B20184608093B2010895833011F1F7
:1019300028F4813049F0823091F00895853081F1AA
:1019400020F18630C1F1089580910001681720F4DC
:10195000861B8093000108951092000108958091E4
:101960000101681720F4861B8093010108951092ED
:101970000101089580911001681720F4861B80935F
:101980001001089510921001089580910F016817B9
:1019900020F4861B80930F01089510920F01089583
:1019A00080910E01681720F4861B80930E01089524
:1019B00010920E01089580910D01681720F4861B86
:1019C00080930D01089510920D010895833081F1E7
:1019D00028F4813059F08230D1F00895853009F42F
:1019E00049C0B8F1863009F456C0089580910001CD
:1019F000262F30E0280F311D2F3F310524F4680FCA
:101A00006093000108958FEF809300010895809105
:101A10000101262F30E0280F311D2F3F310524F41E
:101A2000680F6093010108958FEF8093010108957D
:101A300080911001262F30E0280F311D2F3F3105F6
:101A400024F4680F6093100108958FEF80931001C4
:101A5000089580910F01262F30E0280F311D2F3F70
:101A6000310524F4680F60930F0108958FEF809380
:101A70000F01089580910E01262F30E0280F311DAF
:101A80002F3F310524F4680F60930E0108958FEF06
:101A900080930E01089580910D01262F30E0280FCC
:101AA000311D2F3F310524F4680F60930D01089517
:101AB0008FEF80930D0108958B3109F474C058F5B0
:101AC0008B3009F492C078F4863009F446C020F4D3
:101AD000853009F44CC08BC0873009F456C088307B
:101AE00009F483C084C0803109F470C068F48E307A
:101AF00009F07DC08091950182FB222720F991E0B9
:101B0000922790FB82F958C0863109F46EC0893162
:101B100009F46BC06CC08A32E9F060F4873209F4D2
:101B200061C028F48E3108F462C08D515CC08932E6
:101B3000F1F05DC0833450F48A3308F051C085332E
:101B400009F450C0883309F450C051C0833409F4FB
:101B500049C04DC00E94EC1548C080919501817F1D
:101B60008E7F8093950181E08093330208950E94D7
:101B70002A1A2FEF84E39CE0215080409040E1F747
:101B800000C000000E94331530C080919501982F4D
:101B90009095917090FB80F980939501911125C0EB
:101BA000897F877F10C08091950181FB222720F9D2
:101BB00091E0922790FB81F9809395019923A9F0F8
:101BC000809195018160809395010FC0809195016E
:101BD00083FB222720F991E0922790FB83F9ECCF39
:101BE000895301C080E00E94410981E0089580E0AE
:101BF0000895F894E82FE295EF70F0E031A1282FD6
:101C00002F7081E090E001C0880F2A95EAF7982FA5
:101C10009095932391A392A1892B82A37894089500
:101C20009F92AF92BF92CF92DF92EF92FF920F936B
:101C30001F93CF93DF9301E111E0CDE7D1E085E879
:101C4000E82E81E0F82E912CCC24C394D12CB8013D
:101C5000D8018C91F894E82FE295EF70F0E021A183
:101C60008F70A60102C0440F551F8A95E2F7CA0182
:101C7000922F982B91A392A18095892382A3789487
:101C800000C0E5E1F1E020E030E0A12CB12C419171
:101C9000842F82958F7090E0DC0190968C9190E07B
:101CA0004F7002C0959587954A95E2F780FD08C070
:101CB000C601022E02C0880F991F0A94E2F702C0E3
:101CC00080E090E0A82AB92A2F5F3F4F2E303105DF
:101CD000F1F60F5F1F4FFB0180810E94F90DF0EAC2
:101CE000FA95F1F788819981A816B90621F0B98291
:101CF000A88281E001C080E0982A2296EC16FD06B9
:101D000009F0A5CF992049F081E0809374010E94E9
:101D10008C159093730180937201809174018823D4
:101D200051F180917201909173010E947D15069787
:101D300010F180917D0190917E0190939F0180939D
:101D40009E0180917F01909180019093A1018093E9
:101D5000A00180918101909182019093A3018093D1
:101D6000A20180918301909184019093A5018093B9
:101D7000A40110927401892DDF91CF911F910F91D1
:101D8000FF90EF90DF90CF90BF90AF909F9008951D
:101D9000CF93DF930E940B0BEC018238910559F130
:101DA000A0F48133910509F473C040F489329105A0
:101DB00009F467C08A9709F472C084C0853391051D
:101DC00009F458C0C997B9F07DC0833E910571F1FF
:101DD00038F4803E9105B1F0823E910511F172C058
:101DE000863E9105B9F1873E9105C9F1843E910582
:101DF00009F068C024C080917B0180FD5DC081FD39
:101E00005BC060C080917B0180FD50C080917C01EF
:101E100080FF49C180917B0184FD43C1C3EED0E0C6
:101E200042C180917B0182FF3EC1F4CF80917B0152
:101E300082FD3FC080917C0180FD3EC0EBCF809150
:101E40007C0181FF30C180917B0184FD2AC1C7EEF6
:101E5000D0E029C180917B0183FF25C1F4CF80911F
:101E60007B0183FD2CC080917C0181FFECCFC4EE0F
:101E7000D0E019C180917B0185FF15C1C9E2D0E096
:101E800012C180917B0185FF0EC1C5E3D0E00BC17B
:101E900080917B0186FF07C1CAE2D0E004C1809136
:101EA0007B0186FF00C1C1E3D0E0FDC0C9E3D0E003
:101EB000FAC0C2EED0E0F7C0C0EED0E0F4C0C6EE8B
:101EC000D0E0F1C0C11581E5D80708F066C0C115A2
:101ED00020E5D207E0F0CE0174E0969587957A95DB
:101EE000E1F783709C2F937021E030E002C0220F55
:101EF000331F9A95E2F73C68382BCF70C695C6958C
:101F000040E2C49FE0011124C22BD32BCCC0C83EB9
:101F1000D10560F5C03ED10508F0C5C0C83AD1056D
:101F2000B0F4C53AD10540F0C55AD0E0C45CDE4FEC
:101F3000C881D0E0D064B7C0C130D10509F4B3C0C6
:101F400008F4AFC0C430D10508F4ABC0ACC0CF3B7F
:101F5000D10508F0A6C0C85AD0E0CC0FDD1FC15C87
:101F6000DE4F0990D881C02DD4649DC0C11540E2D8
:101F7000D40758F4C11581E0D80708F094C0C03FD9
:101F8000D10508F48EC0D0658EC0C11520E4D207FB
:101F900008F487C0DF70D06A86C0C11545E5D40754
:101FA00008F042C0C11584E5D80728F0DC2FCC2703
:101FB000C46FD06A78C0C11523E5D207B0F0CE0156
:101FC0008370992721E030E002C0220F331F8A95E9
:101FD000E2F78C2F8695869540E2849FC0011124FC
:101FE000E901C82BD92BDA685EC0C11542E5D407D8
:101FF00028F4DC2FCC27C16FD06A55C0CE01837086
:10200000992721E030E002C0220F331F8A95E2F7C2
:102010008C2F8695869540E2849FC0011124E901AA
:10202000C82BD92BDC683FC0C11589E5D807B8F4A7
:10203000C11528E5D20728F0DC2FCC27C06FD06A65
:1020400032C0C11546E5D40760F58C2F0E94FE080A
:102050008F71C82FD0E0DC2FCC27D06224C0C115EF
:102060008AE5D80780F48C2F8F700E94FE0894E0D8
:10207000D695C7959A95E1F7CF70D0E0DC2FCC27A5
:10208000D069C82B10C0CE0190568115904248F4FB
:102090008D2F8F710E94FE08DD27D0628F71D82BA3
:1020A00002C0C0E0D0E0CE01DF91CF910895BC0125
:1020B00084E00C940115BC0183E00C940115CF93CE
:1020C000DF93CDB7DEB7AA970FB6F894DEBF0FBE89
:1020D000CDBF84B7877F84BF0FB6F894A895809151
:1020E0006000886180936000109260000FBE90E0F5
:1020F00080E80FB6F89480936100909361000FBE62
:1021000085B7806885BF85B7806885BF84EB94E11B
:1021100090936F0180936E010E94691D0E94881D3B
:102120008091E20084608093E200789480912402A0
:102130008823A1F01091E9001F709091EC00892F85
:10214000817090FD80E8182B1092E9008091E800E2
:1021500083FD0E94531A1F701093E90082E084BD32
:1021600093E095BD9AEF97BD80936E0084E90E943D
:10217000F90D86E90E94F90D86EF0E94F90D87EFAF
:102180000E94F90D05E111E0A3E2EA2EA1E0FA2E8A
:10219000F80181918F010E94F90DE016F106C1F757
:1021A00010927E0110927D0110929F0110929E016B
:1021B0001092800110927F011092A1011092A00153
:1021C00010928201109281011092A3011092A2013B
:1021D00010928401109283011092A5011092A40123
:1021E00080E090E00E942C218A3E9E4F11F00E94D8
:1021F000EC1582E090E00E942421809395010E94DA
:10220000DB1590937C0180937B010E94100E8FE37D
:102210009CE90197F1F700C000000E94100E809128
:102220009E0180FF17C06FEF83E290E00E94322191
:102230006FEF84E290E00E9432216FEF85E290E040
:102240000E9432216FEF7FEF80E090E00E945021EA
:102250000E94331583E090E00E942421682F70E0F3
:1022600080E090E00E94FB1783E290E00E9424212E
:10227000813281F484E290E00E942421813151F482
:1022800085E290E00E94242191E0843009F090E002
:10229000892F01C080E080FF46C382E091E09093E7
:1022A00086018093850168E1662E712C70E4472ECB
:1022B000E6EACE2EE1E0DE2EF0E15F2E8E010F5F2A
:1022C0001F4F80912402853009F041C052E1F52E64
:1022D00080912402853009F036C080912402843038
:1022E00009F1109287010FB6F894A89560926000EA
:1022F0000FBE4092600083B7817F846083BF83B745
:10230000816083BF7894889583B78E7F83BF0FB633
:10231000F894A89580916000886180936000109285
:1023200060000FBE80912302882391F20E94100E5C
:10233000EEE9F1E081919191892B09F0D6C2CE1698
:10234000DF06C1F7C5CF0E942A1A0E94220A0E9406
:10235000100E882359F08FB7F8944091A601509140
:10236000A7016091A8017091A9018FBFEEE9F1E08A
:10237000A6E9B1E0E12CF12C7E2D219131918D91D6
:102380009D9182279327009779F160E0AA24A39476
:10239000B12CAC014A215B21452B09F169A37AA339
:1023A0002A213B2181E0232B09F480E08BA30E94AA
:1023B0008C158160782F9DA38CA349A15AA16BA194
:1023C0008DA10E945809F701EE0FFF1FEA56FE4F3C
:1023D00080819181A826B926B182A0821CC06F5F3E
:1023E000AA0CBB1C6E30A9F69FEFE91AF90A24E08B
:1023F000E216F10409F68FEF8EA38FA318A60E94B0
:102400008C158160782F9AA789A74EA15FA168A536
:102410008AA50E94580986E0EEE8F1E0D801019013
:102420000D928A95E1F7A0909001B0909101E09013
:102430009201F090930110929001109291011092EC
:10244000920110929301A11003C0BB2009F45DC05A
:1024500080918C0190918D010E947D15AC0190912D
:102460008B01992339F02091010130E024173507C1
:1024700058F04BC0209100018AE0289F9001112460
:102480002417350718F041C09F3F19F09F5F9093C4
:102490008B01AA2061F00E94F20B1A1414F491E04F
:1024A00001C09FEF899F802D112480939001BB2054
:1024B00061F00E94F20B1B1414F491E001C09FEF35
:1024C000899F802D112480939101309190013323B5
:1024D000E1F0209191012223C1F045EB3403C001CA
:1024E0001124992319F09093900103C081E0809307
:1024F000900135EB2303C0011124992319F0909327
:10250000910103C081E080939101E11003C0FF209D
:1025100009F451C08091890190918A010E947D1532
:102520009C0190918801992309F416C22536310542
:1025300008F441C09F3F19F09F5F90938801EE20FF
:1025400061F00E94B90B1E1414F491E001C09FEFDA
:10255000899F802D112480939201FF2061F00E94B9
:10256000B90B1F1414F491E001C09FEF899F802DD7
:10257000112480939301309192013323E1F0209153
:1025800093012223C1F045EB3403C00111249923A8
:1025900019F09093920103C081E08093920135EB92
:1025A0002303C0011124992319F09093930103C0D0
:1025B00081E0809393018091900181110BC0809103
:1025C0009101811107C080919201811103C0809116
:1025D000930181110E94180BAB82BC82ED82FE82B6
:1025E00086E0F801AEE8B1E001900D928A95E1F73E
:1025F0000E94220A90919401891721F00E94220AD8
:102600008093940180912402843009F05ACE83E0B3
:102610008093E9008091E80082FF53CE8091E8002A
:1026200085FF21C00E94BE1E81111BC080E2A82E22
:10263000B12C780109C08091F100F70181937F01ED
:10264000F1E0AF1AB10869F08091E80085FDF3CFA1
:102650008091E8008B778093E8000E94BE1E88235B
:1026600099F391E001C090E08091E8008B7780932E
:10267000E800992309F425CEE9818E2F90E0FC0132
:102680003197E331F10508F006C1EE59FF4F0C9484
:102690007A211A8289E06DC08A81823009F43BC1B7
:1026A000833089F0813009F0F6C02FB7F89480911B
:1026B000A6019091A701A091A801B091A9012FBFF7
:1026C000BB83AC832BC080919E0190919F019B8323
:1026D0008C838091A0019091A1019D838E83809134
:1026E000A2019091A3019F8388878091A40190917A
:1026F000A50199878A87D1C08A81823009F0CBC031
:102700006B817C818D819E810E94802186E290E098
:1027100025C04C816B818A810E94E50A9D838E834E
:10272000BCC0ED80FE80FE24EF24FE248C81AB80B3
:102730009A812CE1A29E5001112430E7939FA00CB6
:10274000B11C1124A80EB11CA80EB11C6F2DC5011F
:1027500087960E9432216E2DC50188960E943221F3
:102760009CC00E94B10A99C05A8297C082E08A83B5
:1027700089E18B8392C0EA80FB80FE24EF24FE2453
:102780008C80912C5801C70189519E4F9501201BC7
:10279000310B2815390508F080C049E1E41642E004
:1027A000F40628F40E942421F501848302C0F50177
:1027B0001482FFEFEF1AFF0A2FEFA21AB20AE3CF3B
:1027C000EA80FB80FE24EF24FE248C80912C5801AB
:1027D000C70189519E4F9501201B310B28153905E2
:1027E00008F05BC039E1E31632E0F30620F4F501AE
:1027F00064810E943221FFEFEF1AFF0A2FEFA21A25
:10280000B20AE6CF0E94A10A48C084E08A8345C08C
:10281000EA80FB80FE24EF24FE248C80912C58015A
:10282000C70187969501201B310B28153905A8F59E
:1028300030ECE31631E0F30628F40E942421F50180
:10284000848302C0F5011482FFEFEF1AFF0A2FEF15
:10285000A21AB20AE5CFEA80FB80FE24EF24FE2410
:102860008C80912C5801C70187969501201B310B54
:102870002815390590F430ECE31631E0F30620F426
:10288000F50164810E943221FFEFEF1AFF0A2FEF5A
:10289000A21AB20AE8CF8FEF898380912402843094
:1028A00009F00FCD8091E9008F702091EC00922FFC
:1028B000917020FD90E8F92EF82A82E08093E900DB
:1028C0008091E80080FF0CC040E050E060E270E0E2
:1028D000C8010E94F11E8091E8008E778093E80085
:1028E0008F2D8F708093E900ECCC59BCF9BC09B4F2
:1028F00000FEFDCF8091D8008F7D8093D80080911D
:10290000E00082608093E0008091E00081FDFCCFD8
:102910000E942A1ADDCC86E290E00E9424211B82CC
:102920001C821D82FCCE60E086E290E00E94322193
:102930000E94B10A0E94A10A61E283E290E00E9433
:10294000322161E184E290E00E94322164E085E27C
:1029500090E00E943221A1CC2D32314008F0ECCD24
:102960002ACE80911902089580E0089524E02093F2
:10297000E9002FEF3091E800215035FD06C035ED1C
:102980003A95F1F700002111F5CF2091E80025FFDD
:102990000BC040E050E066E070E00E94F11E8091C4
:1029A000E8008E778093E8000895CF93DF9321E0CD
:1029B0002093E9002FEF3091E800215035FD06C04B
:1029C00035ED3A95F1F700002111F5CF2091E8009F
:1029D00025FF14C0EC0140E050E068E070E00E9488
:1029E000F11E8091E8008E778093E80088E0FE0178
:1029F000AAE1B2E001900D928A95E1F7DF91CF91C3
:102A00000895CF93DF9300D01F92CDB7DEB790919A
:102A10002402943011F589837B836A839093E900C3
:102A20008FEF9091E800815095FD06C095ED9A9545
:102A3000F1F700008111F5CF8091E80085FF0DC00E
:102A400040E050E063E070E0CE0101960E94F11E8C
:102A50008091E8008E778093E8000F900F900F90A0
:102A6000DF91CF91089581E08093E00080E2809330
:102A7000D8001092C9008FE19EE40197F1F700C0E1
:102A8000000087E090EBDC018093340290933502E4
:102A9000A0933602B09337029CE088E10FB6F89419
:102AA000A895809360000FBE90936000FFCF78944C
:102AB0001F920F920FB60F9211248F939F93AF9393
:102AC000BF938091A6019091A701A091A801B09118
:102AD000A9010196A11DB11D8093A6019093A701A4
:102AE000A093A801B093A901BF91AF919F918F913D
:102AF0000F900FBE0F901F9018959C014FB7F89440
:102B00008091A6019091A701A091A801B091A9017F
:102B10004FBF821B930B08952FB7F8948091A601A5
:102B20009091A701A091A801B091A9012FBF08958C
:102B30001F920F920FB60F9211248F939F93AF9312
:102B4000BF9380918701811113C08091A60190915C
:102B5000A701A091A801B091A9014196A11DB11DA5
:102B60008093A6019093A701A093A801B093A90117
:102B7000BF91AF919F918F910F900FBE0F901F90BB
:102B800018959C01FC0132969FEF80E04191461719
:102B900089F09F3F19F4411101C0982F8F5F863053
:102BA000A9F79F3F39F0F901E90FF11D97FDFA955B
:102BB000628308950895CF9384E090E00E942421D9
:102BC000C82F82E290E00E9424212C2F30E0A9013E
:102BD000582BCA01CF9108956AEE7EEF80E090E015
:102BE0000E94502160E082E090E00E94322160E08B
:102BF00083E090E00E94322110921302109214029E
:102C0000109215021092160260E084E090E00E949B
:102C1000322160E082E290E00E94322160E085E0B3
:102C200090E00E94322160E086E090E00E94322134
:102C30006FEF87E090E00E94322140E050E0BA015F
:102C400088E090E00E94442160E08DE090E00E94E6
:102C5000322140E050E0BA0188E190E00E94442136
:102C600060E087E190E00E94322140E050E0BA014C
:102C70008CE190E00E94442160E070E080E290E00E
:102C80000E94502140E050E0BA0188E190E00E94AB
:102C9000442140E050E0BA018FE090E00E944421DE
:102CA00040E050E0BA0183E190E00C94442180912F
:102CB00012028111109212020895909111028091D6
:102CC0001002892B20910F02982F922B9093AA012A
:102CD00080911202882389F0892B8093AA01ECEA63
:102CE000F1E097E080E0915029F021912223D9F37F
:102CF0008F5FF9CF81110E945716E0918501F09105
:102D00008601309731F00280F381E02D8AEA91E06C
:102D10000994089580E090E00E940C0A80E090E021
:102D20000E94F6091092100210920F020E945D1686
:102D3000EEE8F1E086E0DF011D928A95E9F7109256
:102D40008B01109288011092B2010C94180BCF9352
:102D5000C0917C01C2FB992790F9981781F080FB04
:102D6000C2F9C0937C0160917B0184E090E00E94F5
:102D700032216C2F82E290E0CF910C943221CF91DE
:102D80000895BF92CF92DF92EF92FF920F931F931D
:102D9000CF93DF938C01C0902E02D0902F02E09051
:102DA0003002F09031028091130290911402A091B0
:102DB0001502B0911602C82AD92AEA2AFB2ACFE1C5
:102DC000D0E0D701C6010C2E04C0B695A795979503
:102DD00087950A94D2F780FD04C0219790F7B12C13
:102DE00007C0BC2EB8018C2F0E94C80E0197A9F312
:102DF0008B2DDF91CF911F910F91FF90EF90DF907E
:102E0000CF90BF900895CF93DF93EC010E94C1163D
:102E1000BE010E94C80EDF91CF9108950E94031752
:102E2000292F2F70E92FE295EF704E2F50E0FA0115
:102E30003297EE30F105B8F4EB58FF4F0C947A213D
:102E4000803F99F018F4883E70F40FC0843F59F425
:102E50000CC0883E50F0813F31F407C0822F869528
:102E600086958695089580E0089581E008952EE086
:102E7000929F800D1124682F669566956695982F10
:102E8000977085E0689FB001112440E050E080E039
:102E9000FB01E40FF51FE551FE4F208130E0092EC4
:102EA00002C0369527950A94E2F721703327042E45
:102EB00001C0220F0A94EAF7822B4F5F5F4F453023
:102EC000510531F708952EE0929F800D1124E82FCF
:102ED000E695E695E695877051E001C0550F8A9515
:102EE000EAF785E0E89FF0011124E551FE4F20E06C
:102EF00030E070E04081CB01022E02C096958795AC
:102F00000A94E2F781708195842785238427819331
:102F10002F5F3F4F2530310569F7089560932E02EA
:102F200070932F0280933002909331020C948A1692
:102F30000F931F9341E050E060E070E004C0440F45
:102F4000551F661F771F8A95D2F74095509560955B
:102F5000709580912E0290912F02A0913002B09135
:102F600031028A019B01082319232A233B23C9012B
:102F7000B8011F910F910C948E1720910E0280952D
:102F8000822380930E02982F977041F430E0482FEF
:102F9000082E000C550B2417350721F490917C0165
:102FA00092FF07C08595859585950E949817109288
:102FB0000E0208950F931F9341E050E060E070E02F
:102FC00004C0440F551F661F771F8A95D2F7809162
:102FD0002E0290912F02A0913002B09131028A010D
:102FE0009B01082B192B2A2B3B2BC901B8011F91E0
:102FF0000F910C948E1760931302709314028093B8
:103000001502909316020C948A168091EA01909111
:10301000B901891719F08F5F8770FBCF08950F935F
:103020001F93CF93DF938091B80182958F7009F041
:103030005DC08091B501882309F458C08091EA01F0
:103040001091B9016091B3017091B401C091B601C2
:10305000D091B70191E06F3F09F090E0292F06E091
:10306000811709F443C0209721F07F3F21F030E021
:1030700003C031E001C0322F90E030FD34C0089F22
:10308000F001099FF00D1124DF01A654BE4F1196E7
:103090003C911197371327C03C91361324C01296E8
:1030A0003C91129731111FC013964D915C9114976A
:1030B0004C1B5D0B483C5105B0F48091B8018F70FA
:1030C00080618093B801E154FE4F80818F708061F0
:1030D000808383EB91E00E94C702DF91CF911F9123
:1030E0000F910C94051801968770BACFDF91CF919C
:1030F0001F910F9108959F92AF92BF92CF92DF924E
:10310000EF92FF920F931F93CF93DF93CDB7DEB76C
:1031100061970FB6F894DEBF0FBECDBF8C0185E07E
:10312000F801DE011D9601900D928A95E1F7F801F4
:1031300090818181E2803091B3016091B40140912E
:10314000B6015091B7014115510531F06F3F31F48F
:1031500021E03F3F19F403C021E001C020E0F22F3D
:10316000F1709F2E20FD23C1F801C380D48023EB92
:10317000A22E21E0B22EF090B501F601E41BF50B72
:10318000FF2009F4CEC02091B801E83CF10508F019
:1031900099C0422F407F09F051C0681311C0391304
:1031A0000FC0FE2CE1100CC02F7020612093B801DD
:1031B000C5010E94C7028091B801F801858337C11B
:1031C000CD2831F08F3F31F421E09F3F19F403C047
:1031D00021E001C020E020FD03C021E02E2502C037
:1031E00020E030E0F22FF170FF2E20FF1DC0209173
:1031F000EA014091B90156E0241709F4F6C030E025
:10320000529FF001539FF00D1124E654FE4F61814F
:10321000861306C06081961303C06281E61204C063
:103220002F5F3F4F2770E8CFFE2CEE2009F4FFC040
:103230008091B80181608093B80150C0681307C0C5
:10324000391305C0E11003C0F80125838DC09D87A7
:103250008E878D859E850E940E17882369F1EE204A
:1032600059F12091B801822F82958F7090E00297DA
:1032700074F08091B3019091B40198878F8319867F
:10328000DB86CA862C87CE0107960E94C70286E09D
:10329000F801A3EBB1E001900D928A95E1F70E944D
:1032A0000F180DC06817E1F09D878E878D859E856C
:1032B0000E940E1781111EC0C8010E94C702FF2480
:1032C000F394B5C0422F407F69F783EB91E00E94F1
:1032D000C70286E0F50111928A95E9F7F12CA7C0A3
:1032E0003913E2CFE110E0CFF8012583C8010E9435
:1032F000C70257C0EE2001F32091B801822F8295BA
:103300008F7090E002971CF28091B3019091B4010C
:103310009A8389831B82DD82CC822E83CE01019623
:10332000B4CFE83CF105E8F5FE2CEE2029F2681355
:1033300027C0391325C02091B80120FD18C0822F65
:1033400082958F70482F50E04115510581F0F801AA
:1033500025834F30510541F08F5F982F9295907FD4
:10336000822F8F70892B8583C8010E94C70286E057
:10337000F801A3EBB1E001900D928A95E1F757C0F7
:103380009D878E878D859E850E940E1781117FCF28
:103390008091B80181608093B801C8010E94C70282
:1033A00046C086E0F50111928A95E9F740C0EE200B
:1033B00009F482CF9D878E878D859E850E940E178A
:1033C000F82E882309F478CF86E0F801A3EBB1E06A
:1033D00001900D928A95E1F78091B3019091B4012B
:1033E0000E9403170E940F1822C09D878E878D852B
:1033F0009E850E940317292F22952F70223028F4D2
:103400009F7039F0811105C00BC0243028F49F70E3
:1034100049F4805E883020F0C8010E94C7029F2CCA
:10342000F92C05C0F8019581907F99F7F9CF8F2D80
:1034300061960FB6F894DEBF0FBECDBFDF91CF917E
:103440001F910F91FF90EF90DF90CF90BF90AF90C2
:103450009F9008951092110286E0ECEAF1E0DF01FE
:103460001D928A95E9F70C948A160F931F93809109
:103470002E0290912F02A0913002B09131028C0166
:103480009D010670112722273327BC01CD0106308C
:1034900011052105310511F4686001C0677F1F9196
:1034A0000F910C948E171F93CF93DF93CDB7DEB798
:1034B000AA970FB6F894DEBF0FBECDBFE6E2F2E0EA
:1034C0008091F100819342E0EE32F407C9F78091D8
:1034D0002702833009F462C030F4813071F0823009
:1034E00009F49CC0B3C08A3009F488C08B3009F459
:1034F0006DC0893009F0AAC020C080912602813AAF
:1035000009F0A4C08091E800877F8093E800809153
:103510002A0290912B02892B21F468E08AE192E043
:1035200003C060E080E090E070E00E94C6208091DF
:10353000E8008B778093E80089C080912602813271
:1035400009F084C080912A0290912B02009719F013
:10355000029709F07BC08091E800877F8093E800A4
:103560008091E80082FD05C0809124028111F8CF8E
:103570006DC02091F3008091F20090E0922B0297B1
:1035800029F48091F1008B7F813021F48091F1004A
:10359000809319028091E8008B7754C080912602B5
:1035A000813A09F053C080912A0290912B02892B15
:1035B00009F04CC08091E800877F8093E8008091FB
:1035C000E80080FFFCCF80910C0137C0809126027B
:1035D0008132E1F580912A0290912B02892BB1F57D
:1035E0008091E800877F8093E8000E94722080919C
:1035F000280280930C010E942A1A28C0809126027A
:10360000813221F58091E800877F8093E8000E9455
:103610007220809129028093180218C0809126029E
:10362000813AA1F48091E800877F8093E80080913F
:10363000E80080FFFCCF809118028093F100809118
:10364000E8008E778093E8000E9472208091E80065
:1036500083FFDDC18091260290912702492F50E01F
:103660004A30510508F0D3C1FA01ED57FF4F0C94D1
:103670007A21803821F0823809F0C9C108C08091D0
:10368000220290912302992389F082600FC08091D9
:103690002A028F70873008F0BAC18093E9008091C8
:1036A000EB0085FB882780F91092E9009091E800F3
:1036B000977F9093E8008093F1001092F10070C121
:1036C000282F2D7F09F0A3C1882319F0823061F0E3
:1036D0009EC180912802813009F099C1933009F090
:1036E00080E0809323022EC08091280281112AC09D
:1036F00080912A028F702FEF280F263008F087C1A3
:103700008093E9002091EB0020FF1CC0933021F44E
:103710008091EB00806214C09091EB0090619093D7
:10372000EB0021E030E0A90102C0440F551F8A954B
:10373000E2F74093EA001092EA008091EB00886083
:103740008093EB001092E9008091E800877F8093DE
:10375000E8000E9472205BC1811159C110912802BA
:103760001F778091E3008078812B8093E300809124
:10377000E800877F8093E8000E9472208091E80033
:1037800080FFFCCF8091E30080688093E3001111FB
:1037900002C082E001C083E08093240238C18058D7
:1037A000823008F034C120912802309129022C3D4A
:1037B00053E0350779F583E08A838AE289834FB73E
:1037C000F894DE01139620E03EE051E2E32FF0E0B2
:1037D00050935700E49120FF03C0E295EF703F5FE4
:1037E000EF708E2F90E0EA3010F0C79601C0C096BF
:1037F0008D939D932F5F243149F74FBF8091E8004F
:10380000877F8093E8006AE270E0CE0101960E9413
:10381000C620B4C080912A0290912B02432F5527D5
:1038200043305105A9F068F44130510509F4FEC058
:103830004230510509F0EBC08BE590E0E7E6F4E09B
:103840004BC04132510529F14232510589F1DFC0A7
:10385000C901992781309105A1F058F0029709F02C
:10386000D6C0E4EDF4E0E4918E2F90E0E4EDF4E0D6
:1038700030C0E8EFF4E0E4918E2F90E0E8EFF4E060
:1038800028C0E8EEF4E0E4918E2F90E0E8EEF4E05A
:1038900020C08330910508F0BAC0880F991FFC0141
:1038A000E45DFE4F0190F081E02D89E090E014C0CE
:1038B0008330910508F0ABC0FC01EE0FFF1FEA5DFD
:1038C000FE4F0190F081E02DDC01AD5DBE4F8C918B
:1038D00090E0009709F49BC02091E800277F209397
:1038E000E80020912C0230912D022817390708F4A6
:1038F000C90140E0009789F120912402222309F4B4
:103900003DC02530D9F12091E80023FD37C020913A
:10391000E80022FD2FC02091E80020FFEBCF40916E
:10392000F3002091F20030E0342B009759F028305A
:10393000310540F444914093F100319601972F5F97
:103940003F4FF3CF41E02830310509F040E02091AE
:10395000E8002E772093E800CDCF4111CDCF0AC0EB
:1039600080912402882351F0853041F08091E80055
:1039700083FD04C08091E80082FFF2CF8091E800CF
:103980008B778093E80043C0803809F040C0809175
:10399000E800877F8093E800809125028093F10002
:1039A0008091E8008E77D3CE811131C080912802BA
:1039B000909129029927029754F58091E800877F1A
:1039C0008093E80010912802109325020E94722033
:1039D000111106C08091E30087FD02C081E001C0A3
:1039E00084E08093240242E061EC81E00E94912017
:1039F00042E261EC84E00E94912042E261EC82E0CC
:103A00000E94912042E260EC83E00E94912080912C
:103A1000E80083FF10C08091E800877F8093E80072
:103A20008091EB0080628093EB0005C082E190E022
:103A3000E2ECF4E051CFAA960FB6F894DEBF0FBEC9
:103A4000CDBFDF91CF911F9108951F920F920FB6B6
:103A50000F9211242F933F934F935F936F937F9314
:103A60008F939F93AF93BF93CF93DF93EF93FF9386
:103A7000C091E900CF708091EC00D82FD17080FD0B
:103A8000D0E81092E9008091F000877F8093F000E9
:103A900078940E94531A1092E9008091F000886097
:103AA0008093F000CD2BCF70C093E900FF91EF9190
:103AB000DF91CF91BF91AF919F918F917F916F9146
:103AC0005F914F913F912F910F900FBE0F901F90DC
:103AD0001895E8EDF0E080818E7F80831092E200FF
:103AE0001092DA001092E100A0EEB0E08C918160BB
:103AF0008C9380818F77808319BCA7EDB0E08C9187
:103B00008E7F8C9380818F7E808310921702089520
:103B1000CF92DF92EF92FF920F931F93CF93DF9399
:103B2000C8EDD0E088818F7E8883E7EDF0E080816A
:103B30008160808384E082BF81E080931702888166
:103B40008E7F888302EE10E0F80110821092DA0076
:103B500081EEC82ED12CF601108288818F77888360
:103B600088818068888388818F7D888319BC1092C2
:103B7000240210922502109223021092220290EE4B
:103B8000E92EF12CF70180818B7F80838881816011
:103B9000888342E060E080E00E949120F60180810D
:103BA0008E7F8083F801808181608083808188603E
:103BB0008083F70180818E7F808388818061888304
:103BC000DF91CF911F910F91FF90EF90DF90CF90F9
:103BD00008951F920F920FB60F9211242F933F93C7
:103BE0004F935F936F937F938F939F93AF93BF9305
:103BF000EF93FF938091E10082FF09C08091E20082
:103C000082FF05C08091E1008B7F8093E10080916D
:103C1000DA0080FF2AC08091D80080FF26C0809102
:103C2000DA008E7F8093DA008091D90080FF18C07F
:103C300080E189BD82E189BD09B400FEFDCF81E04C
:103C4000809324028091170281110FC00E94691D88
:103C50000E94881D8091E20084608093E20005C08C
:103C600019BC10922402109217028091E10080FF8B
:103C700017C08091E20080FF13C08091E2008E7F28
:103C80008093E2008091E20080618093E200809165
:103C9000D80080628093D80019BC85E0809324020C
:103CA0008091E10084FF2EC08091E20084FF2AC051
:103CB00080E189BD82E189BD09B400FEFDCF80911C
:103CC000D8008F7D8093D8008091E1008F7E809313
:103CD000E1008091E2008F7E8093E2008091E2001B
:103CE00081608093E20080912502882311F084E0B6
:103CF00007C08091E30087FD02C081E001C083E03E
:103D0000809324028091E10083FF27C08091E2002C
:103D100083FF23C08091E100877F8093E10082E0F0
:103D200080932402109225028091E1008E7F80937F
:103D3000E1008091E2008E7F8093E2008091E200BA
:103D400080618093E20042E060E080E00E94912088
:103D50008091F00088608093F000FF91EF91BF9117
:103D6000AF919F918F917F916F915F914F913F9113
:103D70002F910F900FBE0F901F9018952091E40087
:103D80003091E50095E64091EC00842F817040FF72
:103D900023C08091E80080FD1DC08091240288230B
:103DA00099F0853099F08091EB0085FD11C040912C
:103DB000E4005091E5002417350729F3915011F0E4
:103DC0009A01E1CF84E0089582E0089583E00895A8
:103DD00081E0089580E008954091E80042FFDDCF42
:103DE0000895EF92FF920F931F93CF93DF937C017F
:103DF0008B010E94BE1E811119C0E701011511053A
:103E0000A1F08091E80085FD0AC08091E8008E77DE
:103E10008093E8000E94BE1E882381F307C0899129
:103E20008093F10001501109E9CF80E0DF91CF913B
:103E30001F910F91FF90EF900895882341F0809596
:103E4000909111028923809311020C945D160895BC
:103E5000882339F090911102892B809311020C94E0
:103E60005D1608958823E1F19CEF980F913A60F474
:103E7000EAEAF1E09281891301C01282319641E0B1
:103E8000E03BF407B9F714C090E2980F983090F433
:103E9000877021E030E0A90102C0440F551F8A95C8
:103EA000E2F7CA0180959091110289238093110253
:103EB0000C945D169BE5980F933020F480E090E021
:103EC0000C940C0A98E5980F973120F480E090E06C
:103ED0000C94F609803F20F00E94420B0C94180BC2
:103EE0000895CF93882309F4DDC0C82F8CEF8C0F81
:103EF000813A08F082C080913302813069F018F075
:103F0000823021F172C080911102823209F0ACC07E
:103F10008C2F0E945C0D6EC0809111028232C1F321
:103F2000C43189F050F4CB3009F462C0C03109F0DB
:103F300099C082E0809333025BC0C93221F0C8335C
:103F400009F456C08FC0109233028CC0C932A9F157
:103F500028F5C43191F1B0F4C73009F0A3C08EE167
:103F60008093000182E3809301018AE08093100135
:103F700084E180930F0188E080930E0188E28093B2
:103F80000D0190C0CE51C63008F08CC0EC2FF0E08F
:103F9000EE5CFE4F80818093320284C0CE34F9F013
:103FA00028F4CB3409F07EC06AE014C0C13581F03A
:103FB000C23509F077C061E00DC0809132028823DC
:103FC00019F0109232026EC081E0809333026AC011
:103FD00061E006C080913202CF910C94E60C6AE059
:103FE00080913202CF910C94960C109233023CC017
:103FF00081E08170811156C037C080E28C0F88301B
:1040000078F4C77081E090E001C0880FCA95EAF7A4
:1040100090911102892B80931102CF910C945D161F
:10402000EBE5EC0FE33040F4F0E0E45CFE4F808120
:1040300090E0CF910C940C0AE8E5EC0FE73150F4D6
:10404000F0E0EE0FFF1FE15CFE4F80819181CF9188
:104050000C94F609C03F30F18C2F0E943B0CCF919D
:104060000C94180B80E0C5CFECEAF1E082EB91E014
:104070002191C21721F08E179F07D1F70DC0EAEAF0
:10408000F1E08281C81301C01282319681E0E03BE9
:10409000F807B9F70E945D166C2F8AEA91E00E943A
:1040A000C115BBCFCF9108951F93CF93DF93182FE6
:1040B000893319F0C0E0D0E002C0C0E5D0E0812F24
:1040C0000E94711F209741F08FE99FE00197F1F75F
:1040D00000C000002197F6CF812FDF91CF911F9173
:1040E0000C94321F8091260287FF11C08091E80056
:1040F00082FD05C0809124028111F8CF11C080910A
:10410000E8008B770BC080912402882349F08091CE
:10411000E80080FFF8CF8091E8008E778093E80078
:104120000895982F973068F59093E900981739F023
:104130007091EC002091ED005091F00003C0242F0D
:10414000762F50E021FD02C09F5FECCF3091EB0055
:104150003E7F3093EB003091ED003D7F3093ED00DA
:104160003091EB0031603093EB007093EC002093C2
:10417000ED005093F0002091EE0027FDE5CF80E0A8
:1041800008958F708093E90081E0089520912C02BA
:1041900030912D022617370748F06115710539F463
:1041A0002091E8002E772093E80001C0B901FC01BE
:1041B00020E06115710579F1809124028823F1F1E5
:1041C0008530F1F18091E80083FD3CC08091E800EA
:1041D00082FD2EC08091E80080FFEBCF2091F3009C
:1041E0008091F20090E0922B6115710551F08830BA
:1041F000910538F421912093F100615071090196E5
:10420000F3CF21E0089709F020E08091E8008E7755
:104210008093E800CECF2111CFCF0AC08091240235
:10422000882361F0853061F08091E80083FD0AC049
:104230008091E80082FFF2CF80E0089582E0089547
:1042400083E0089581E00895F999FECF92BD81BD84
:10425000F89A992780B50895A8E1B0E042E050E0CF
:104260000C945821262FF999FECF92BD81BDF89A62
:10427000019700B4021639F01FBA20BD0FB6F894AA
:10428000FA9AF99A0FBE08950396272F0E943321B8
:104290000E943221252F0E943321242F0C94332198
:1042A0000196272F0E9433210C943221DC01CB018F
:1042B000FC01F999FECF06C0F2BDE1BDF89A319636
:1042C00000B40D9241505040B8F7089597FB072E67
:1042D00016F4009407D077FD09D00E94872107FCCF
:1042E00005D03EF4909581959F4F08957095619506
:1042F0007F4F0895EE0FFF1F0590F491E02D099474
:104300006927962769277827872778270895AA1B82
:10431000BB1B51E107C0AA1FBB1FA617B70710F0B0
:10432000A61BB70B881F991F5A95A9F780959095E2
:0A433000BC01CD010895F894FFCF01
:10433A001E32B114D514B6145B1057100128081494
:10434A000A9496F6F7F0F1F4F531909192939597D5
:10435A0034353640227B270405048A037904920403
:10436A00B20401020304050607080900818283E2F8
:10437A0000E900EA00B500B600B700CD008301CC21
:10438A00008A0192019401210223022402250226B5
:0E439A000227022A02B300B4006F0070000078
:00000001FF
